{
  "_format": "hh-sol-artifact-1",
  "contractName": "Admin",
  "sourceName": "contracts/contracts.sol",
  "abi": [
    {
      "anonymous": false,
      "inputs": [
        {
          "indexed": true,
          "internalType": "address",
          "name": "previousOwner",
          "type": "address"
        },
        {
          "indexed": true,
          "internalType": "address",
          "name": "newOwner",
          "type": "address"
        }
      ],
      "name": "OwnershipTransferred",
      "type": "event"
    },
    {
      "inputs": [
        {
          "internalType": "address",
          "name": "_sellerID",
          "type": "address"
        }
      ],
      "name": "addSeller",
      "outputs": [],
      "stateMutability": "nonpayable",
      "type": "function"
    },
    {
      "inputs": [],
      "name": "owner",
      "outputs": [
        {
          "internalType": "address",
          "name": "",
          "type": "address"
        }
      ],
      "stateMutability": "view",
      "type": "function"
    },
    {
      "inputs": [],
      "name": "renounceOwnership",
      "outputs": [],
      "stateMutability": "nonpayable",
      "type": "function"
    },
    {
      "inputs": [
        {
          "internalType": "address",
          "name": "newOwner",
          "type": "address"
        }
      ],
      "name": "transferOwnership",
      "outputs": [],
      "stateMutability": "nonpayable",
      "type": "function"
    }
  ],
  "bytecode": "0x608060405234801561001057600080fd5b5061002d61002261003260201b60201c565b61003a60201b60201c565b6100fe565b600033905090565b60008060009054906101000a900473ffffffffffffffffffffffffffffffffffffffff169050816000806101000a81548173ffffffffffffffffffffffffffffffffffffffff021916908373ffffffffffffffffffffffffffffffffffffffff1602179055508173ffffffffffffffffffffffffffffffffffffffff168173ffffffffffffffffffffffffffffffffffffffff167f8be0079c531659141344cd1fd0a4f28419497f9722a3daafe3b4186f6b6457e060405160405180910390a35050565b6107288061010d6000396000f3fe608060405234801561001057600080fd5b506004361061004c5760003560e01c8063715018a6146100515780638da5cb5b1461005b578063d93fabfa14610079578063f2fde38b14610095575b600080fd5b6100596100b1565b005b6100636100c5565b60405161007091906104fa565b60405180910390f35b610093600480360381019061008e9190610459565b6100ee565b005b6100af60048036038101906100aa9190610459565b6101a5565b005b6100b9610229565b6100c360006102a7565b565b60008060009054906101000a900473ffffffffffffffffffffffffffffffffffffffff16905090565b6100f6610229565b6100ff8161036b565b1561013f576040517f08c379a000000000000000000000000000000000000000000000000000000000815260040161013690610555565b60405180910390fd5b6001819080600181540180825580915050600190039060005260206000200160009091909190916101000a81548173ffffffffffffffffffffffffffffffffffffffff021916908373ffffffffffffffffffffffffffffffffffffffff16021790555050565b6101ad610229565b600073ffffffffffffffffffffffffffffffffffffffff168173ffffffffffffffffffffffffffffffffffffffff16141561021d576040517f08c379a000000000000000000000000000000000000000000000000000000000815260040161021490610515565b60405180910390fd5b610226816102a7565b50565b61023161043c565b73ffffffffffffffffffffffffffffffffffffffff1661024f6100c5565b73ffffffffffffffffffffffffffffffffffffffff16146102a5576040517f08c379a000000000000000000000000000000000000000000000000000000000815260040161029c90610535565b60405180910390fd5b565b60008060009054906101000a900473ffffffffffffffffffffffffffffffffffffffff169050816000806101000a81548173ffffffffffffffffffffffffffffffffffffffff021916908373ffffffffffffffffffffffffffffffffffffffff1602179055508173ffffffffffffffffffffffffffffffffffffffff168173ffffffffffffffffffffffffffffffffffffffff167f8be0079c531659141344cd1fd0a4f28419497f9722a3daafe3b4186f6b6457e060405160405180910390a35050565b6000806000905060005b600180549050811015610432578373ffffffffffffffffffffffffffffffffffffffff16600182815481106103d3577f4e487b7100000000000000000000000000000000000000000000000000000000600052603260045260246000fd5b9060005260206000200160009054906101000a900473ffffffffffffffffffffffffffffffffffffffff1673ffffffffffffffffffffffffffffffffffffffff16141561041f57600191505b808061042a906105c2565b915050610375565b5080915050919050565b600033905090565b600081359050610453816106db565b92915050565b60006020828403121561046b57600080fd5b600061047984828501610444565b91505092915050565b61048b81610586565b82525050565b600061049e602683610575565b91506104a98261063a565b604082019050919050565b60006104c1602083610575565b91506104cc82610689565b602082019050919050565b60006104e4602083610575565b91506104ef826106b2565b602082019050919050565b600060208201905061050f6000830184610482565b92915050565b6000602082019050818103600083015261052e81610491565b9050919050565b6000602082019050818103600083015261054e816104b4565b9050919050565b6000602082019050818103600083015261056e816104d7565b9050919050565b600082825260208201905092915050565b600061059182610598565b9050919050565b600073ffffffffffffffffffffffffffffffffffffffff82169050919050565b6000819050919050565b60006105cd826105b8565b91507fffffffffffffffffffffffffffffffffffffffffffffffffffffffffffffffff821415610600576105ff61060b565b5b600182019050919050565b7f4e487b7100000000000000000000000000000000000000000000000000000000600052601160045260246000fd5b7f4f776e61626c653a206e6577206f776e657220697320746865207a65726f206160008201527f6464726573730000000000000000000000000000000000000000000000000000602082015250565b7f4f776e61626c653a2063616c6c6572206973206e6f7420746865206f776e6572600082015250565b7f53656c6c657220697320616c726561647920696e2053656c6c6572204c697374600082015250565b6106e481610586565b81146106ef57600080fd5b5056fea26469706673582212203634c6c338cb0994638297c40573a1f6cdcd812745d4788dd67c794d2290722f64736f6c63430008010033",
  "linkReferences": {},
  "deployedLinkReferences": {}
}