{
  "_format": "hh-sol-artifact-1",
  "contractName": "Seller",
  "sourceName": "contracts/contracts.sol",
  "abi": [
    {
      "inputs": [],
      "stateMutability": "nonpayable",
      "type": "constructor"
    },
    {
      "anonymous": false,
      "inputs": [
        {
          "indexed": true,
          "internalType": "address",
          "name": "owner",
          "type": "address"
        },
        {
          "indexed": true,
          "internalType": "address",
          "name": "approved",
          "type": "address"
        },
        {
          "indexed": true,
          "internalType": "uint256",
          "name": "tokenId",
          "type": "uint256"
        }
      ],
      "name": "Approval",
      "type": "event"
    },
    {
      "anonymous": false,
      "inputs": [
        {
          "indexed": true,
          "internalType": "address",
          "name": "owner",
          "type": "address"
        },
        {
          "indexed": true,
          "internalType": "address",
          "name": "operator",
          "type": "address"
        },
        {
          "indexed": false,
          "internalType": "bool",
          "name": "approved",
          "type": "bool"
        }
      ],
      "name": "ApprovalForAll",
      "type": "event"
    },
    {
      "anonymous": false,
      "inputs": [
        {
          "indexed": true,
          "internalType": "address",
          "name": "previousOwner",
          "type": "address"
        },
        {
          "indexed": true,
          "internalType": "address",
          "name": "newOwner",
          "type": "address"
        }
      ],
      "name": "OwnershipTransferred",
      "type": "event"
    },
    {
      "anonymous": false,
      "inputs": [
        {
          "indexed": true,
          "internalType": "address",
          "name": "from",
          "type": "address"
        },
        {
          "indexed": true,
          "internalType": "address",
          "name": "to",
          "type": "address"
        },
        {
          "indexed": true,
          "internalType": "uint256",
          "name": "tokenId",
          "type": "uint256"
        }
      ],
      "name": "Transfer",
      "type": "event"
    },
    {
      "inputs": [
        {
          "internalType": "address",
          "name": "_sellerID",
          "type": "address"
        }
      ],
      "name": "addSeller",
      "outputs": [],
      "stateMutability": "nonpayable",
      "type": "function"
    },
    {
      "inputs": [
        {
          "internalType": "address",
          "name": "to",
          "type": "address"
        },
        {
          "internalType": "uint256",
          "name": "tokenId",
          "type": "uint256"
        }
      ],
      "name": "approve",
      "outputs": [],
      "stateMutability": "nonpayable",
      "type": "function"
    },
    {
      "inputs": [
        {
          "internalType": "address",
          "name": "owner",
          "type": "address"
        }
      ],
      "name": "balanceOf",
      "outputs": [
        {
          "internalType": "uint256",
          "name": "",
          "type": "uint256"
        }
      ],
      "stateMutability": "view",
      "type": "function"
    },
    {
      "inputs": [
        {
          "internalType": "address",
          "name": "user",
          "type": "address"
        },
        {
          "internalType": "uint256",
          "name": "token",
          "type": "uint256"
        }
      ],
      "name": "burnWarranty",
      "outputs": [],
      "stateMutability": "nonpayable",
      "type": "function"
    },
    {
      "inputs": [
        {
          "internalType": "address",
          "name": "user",
          "type": "address"
        }
      ],
      "name": "getAllUserNfts",
      "outputs": [
        {
          "components": [
            {
              "internalType": "uint256",
              "name": "id",
              "type": "uint256"
            },
            {
              "internalType": "uint256",
              "name": "expireDate",
              "type": "uint256"
            },
            {
              "internalType": "address",
              "name": "seller",
              "type": "address"
            },
            {
              "internalType": "uint256",
              "name": "generatedDate",
              "type": "uint256"
            },
            {
              "internalType": "string",
              "name": "imageHash",
              "type": "string"
            }
          ],
          "internalType": "struct Seller.NftData[]",
          "name": "",
          "type": "tuple[]"
        }
      ],
      "stateMutability": "view",
      "type": "function"
    },
    {
      "inputs": [
        {
          "internalType": "uint256",
          "name": "tokenId",
          "type": "uint256"
        }
      ],
      "name": "getApproved",
      "outputs": [
        {
          "internalType": "address",
          "name": "",
          "type": "address"
        }
      ],
      "stateMutability": "view",
      "type": "function"
    },
    {
      "inputs": [
        {
          "internalType": "address",
          "name": "owner",
          "type": "address"
        },
        {
          "internalType": "address",
          "name": "operator",
          "type": "address"
        }
      ],
      "name": "isApprovedForAll",
      "outputs": [
        {
          "internalType": "bool",
          "name": "",
          "type": "bool"
        }
      ],
      "stateMutability": "view",
      "type": "function"
    },
    {
      "inputs": [
        {
          "internalType": "address",
          "name": "recipient",
          "type": "address"
        },
        {
          "internalType": "string",
          "name": "tokenURI",
          "type": "string"
        },
        {
          "internalType": "uint256",
          "name": "expireDate",
          "type": "uint256"
        },
        {
          "internalType": "string",
          "name": "image",
          "type": "string"
        }
      ],
      "name": "mintWarrantyNFT",
      "outputs": [
        {
          "internalType": "uint256",
          "name": "",
          "type": "uint256"
        }
      ],
      "stateMutability": "nonpayable",
      "type": "function"
    },
    {
      "inputs": [],
      "name": "name",
      "outputs": [
        {
          "internalType": "string",
          "name": "",
          "type": "string"
        }
      ],
      "stateMutability": "view",
      "type": "function"
    },
    {
      "inputs": [],
      "name": "owner",
      "outputs": [
        {
          "internalType": "address",
          "name": "",
          "type": "address"
        }
      ],
      "stateMutability": "view",
      "type": "function"
    },
    {
      "inputs": [
        {
          "internalType": "uint256",
          "name": "tokenId",
          "type": "uint256"
        }
      ],
      "name": "ownerOf",
      "outputs": [
        {
          "internalType": "address",
          "name": "",
          "type": "address"
        }
      ],
      "stateMutability": "view",
      "type": "function"
    },
    {
      "inputs": [],
      "name": "renounceOwnership",
      "outputs": [],
      "stateMutability": "nonpayable",
      "type": "function"
    },
    {
      "inputs": [
        {
          "internalType": "address",
          "name": "from",
          "type": "address"
        },
        {
          "internalType": "address",
          "name": "to",
          "type": "address"
        },
        {
          "internalType": "uint256",
          "name": "tokenId",
          "type": "uint256"
        }
      ],
      "name": "safeTransferFrom",
      "outputs": [],
      "stateMutability": "nonpayable",
      "type": "function"
    },
    {
      "inputs": [
        {
          "internalType": "address",
          "name": "from",
          "type": "address"
        },
        {
          "internalType": "address",
          "name": "to",
          "type": "address"
        },
        {
          "internalType": "uint256",
          "name": "tokenId",
          "type": "uint256"
        },
        {
          "internalType": "bytes",
          "name": "data",
          "type": "bytes"
        }
      ],
      "name": "safeTransferFrom",
      "outputs": [],
      "stateMutability": "nonpayable",
      "type": "function"
    },
    {
      "inputs": [
        {
          "internalType": "address",
          "name": "operator",
          "type": "address"
        },
        {
          "internalType": "bool",
          "name": "approved",
          "type": "bool"
        }
      ],
      "name": "setApprovalForAll",
      "outputs": [],
      "stateMutability": "nonpayable",
      "type": "function"
    },
    {
      "inputs": [
        {
          "internalType": "bytes4",
          "name": "interfaceId",
          "type": "bytes4"
        }
      ],
      "name": "supportsInterface",
      "outputs": [
        {
          "internalType": "bool",
          "name": "",
          "type": "bool"
        }
      ],
      "stateMutability": "view",
      "type": "function"
    },
    {
      "inputs": [],
      "name": "symbol",
      "outputs": [
        {
          "internalType": "string",
          "name": "",
          "type": "string"
        }
      ],
      "stateMutability": "view",
      "type": "function"
    },
    {
      "inputs": [
        {
          "internalType": "uint256",
          "name": "tokenId",
          "type": "uint256"
        }
      ],
      "name": "tokenURI",
      "outputs": [
        {
          "internalType": "string",
          "name": "",
          "type": "string"
        }
      ],
      "stateMutability": "view",
      "type": "function"
    },
    {
      "inputs": [
        {
          "internalType": "address",
          "name": "from",
          "type": "address"
        },
        {
          "internalType": "address",
          "name": "to",
          "type": "address"
        },
        {
          "internalType": "uint256",
          "name": "tokenId",
          "type": "uint256"
        }
      ],
      "name": "transferFrom",
      "outputs": [],
      "stateMutability": "nonpayable",
      "type": "function"
    },
    {
      "inputs": [
        {
          "internalType": "address",
          "name": "newOwner",
          "type": "address"
        }
      ],
      "name": "transferOwnership",
      "outputs": [],
      "stateMutability": "nonpayable",
      "type": "function"
    },
    {
      "inputs": [
        {
          "internalType": "address",
          "name": "user",
          "type": "address"
        },
        {
          "internalType": "uint256",
          "name": "_token",
          "type": "uint256"
        }
      ],
      "name": "validateNFT",
      "outputs": [
        {
          "internalType": "bool",
          "name": "",
          "type": "bool"
        }
      ],
      "stateMutability": "view",
      "type": "function"
    }
  ],
  "bytecode": "0x60806040523480156200001157600080fd5b506040518060400160405280600d81526020017f57617272616e74795665727365000000000000000000000000000000000000008152506040518060400160405280600381526020017f77567300000000000000000000000000000000000000000000000000000000008152506200009e62000092620000d860201b60201c565b620000e060201b60201c565b8160029080519060200190620000b6929190620001a4565b508060039080519060200190620000cf929190620001a4565b505050620002b9565b600033905090565b60008060009054906101000a900473ffffffffffffffffffffffffffffffffffffffff169050816000806101000a81548173ffffffffffffffffffffffffffffffffffffffff021916908373ffffffffffffffffffffffffffffffffffffffff1602179055508173ffffffffffffffffffffffffffffffffffffffff168173ffffffffffffffffffffffffffffffffffffffff167f8be0079c531659141344cd1fd0a4f28419497f9722a3daafe3b4186f6b6457e060405160405180910390a35050565b828054620001b29062000254565b90600052602060002090601f016020900481019282620001d6576000855562000222565b82601f10620001f157805160ff191683800117855562000222565b8280016001018555821562000222579182015b828111156200022157825182559160200191906001019062000204565b5b50905062000231919062000235565b5090565b5b808211156200025057600081600090555060010162000236565b5090565b600060028204905060018216806200026d57607f821691505b602082108114156200028457620002836200028a565b5b50919050565b7f4e487b7100000000000000000000000000000000000000000000000000000000600052602260045260246000fd5b6143ec80620002c96000396000f3fe608060405234801561001057600080fd5b50600436106101375760003560e01c8063715018a6116100b8578063a22cb4651161007c578063a22cb46514610360578063b88d4fde1461037c578063c87b56dd14610398578063d93fabfa146103c8578063e985e9c5146103e4578063f2fde38b1461041457610137565b8063715018a6146102ba57806371a6375e146102c45780638da5cb5b146102f457806395d89b41146103125780639c96f4201461033057610137565b806323b872dd116100ff57806323b872dd14610206578063343dc9751461022257806342842e0e1461023e5780636352211e1461025a57806370a082311461028a57610137565b806301ffc9a71461013c57806306fdde031461016c578063081812fc1461018a578063095ea7b3146101ba578063168b0cc1146101d6575b600080fd5b6101566004803603810190610151919061336f565b610430565b60405161016391906138ed565b60405180910390f35b610174610512565b6040516101819190613908565b60405180910390f35b6101a4600480360381019061019f91906133c1565b6105a4565b6040516101b19190613864565b60405180910390f35b6101d460048036038101906101cf9190613333565b6105ea565b005b6101f060048036038101906101eb91906132a0565b610702565b6040516101fd9190613b2a565b60405180910390f35b610220600480360381019061021b919061319a565b61096a565b005b61023c60048036038101906102379190613333565b610f2d565b005b6102586004803603810190610253919061319a565b61149c565b005b610274600480360381019061026f91906133c1565b6114bc565b6040516102819190613864565b60405180910390f35b6102a4600480360381019061029f9190613135565b61156e565b6040516102b19190613b2a565b60405180910390f35b6102c2611626565b005b6102de60048036038101906102d99190613135565b61163a565b6040516102eb91906138cb565b60405180910390f35b6102fc6117de565b6040516103099190613864565b60405180910390f35b61031a611807565b6040516103279190613908565b60405180910390f35b61034a60048036038101906103459190613333565b611899565b60405161035791906138ed565b60405180910390f35b61037a60048036038101906103759190613264565b611aa6565b005b610396600480360381019061039191906131e9565b611abc565b005b6103b260048036038101906103ad91906133c1565b611b1e565b6040516103bf9190613908565b60405180910390f35b6103e260048036038101906103dd9190613135565b611c31565b005b6103fe60048036038101906103f9919061315e565b611ce8565b60405161040b91906138ed565b60405180910390f35b61042e60048036038101906104299190613135565b611d7c565b005b60007f80ac58cd000000000000000000000000000000000000000000000000000000007bffffffffffffffffffffffffffffffffffffffffffffffffffffffff1916827bffffffffffffffffffffffffffffffffffffffffffffffffffffffff191614806104fb57507f5b5e139f000000000000000000000000000000000000000000000000000000007bffffffffffffffffffffffffffffffffffffffffffffffffffffffff1916827bffffffffffffffffffffffffffffffffffffffffffffffffffffffff1916145b8061050b575061050a82611e00565b5b9050919050565b60606002805461052190613dca565b80601f016020809104026020016040519081016040528092919081815260200182805461054d90613dca565b801561059a5780601f1061056f5761010080835404028352916020019161059a565b820191906000526020600020905b81548152906001019060200180831161057d57829003601f168201915b5050505050905090565b60006105af82611e6a565b6006600083815260200190815260200160002060009054906101000a900473ffffffffffffffffffffffffffffffffffffffff169050919050565b60006105f5826114bc565b90508073ffffffffffffffffffffffffffffffffffffffff168373ffffffffffffffffffffffffffffffffffffffff161415610666576040517f08c379a000000000000000000000000000000000000000000000000000000000815260040161065d90613aaa565b60405180910390fd5b8073ffffffffffffffffffffffffffffffffffffffff16610685611eb5565b73ffffffffffffffffffffffffffffffffffffffff1614806106b457506106b3816106ae611eb5565b611ce8565b5b6106f3576040517f08c379a00000000000000000000000000000000000000000000000000000000081526004016106ea90613a2a565b60405180910390fd5b6106fd8383611ebd565b505050565b6000336000805b6001805490508110156107c6578273ffffffffffffffffffffffffffffffffffffffff1660018281548110610767577f4e487b7100000000000000000000000000000000000000000000000000000000600052603260045260246000fd5b9060005260206000200160009054906101000a900473ffffffffffffffffffffffffffffffffffffffff1673ffffffffffffffffffffffffffffffffffffffff1614156107b357600191505b80806107be90613e2d565b915050610709565b5080610807576040517f08c379a00000000000000000000000000000000000000000000000000000000081526004016107fe90613aea565b60405180910390fd5b6108116009611f76565b600061081d6009611f8c565b90506108298882611f9a565b6108338188612174565b600a60008973ffffffffffffffffffffffffffffffffffffffff1673ffffffffffffffffffffffffffffffffffffffff1681526020019081526020016000206040518060a001604052808381526020018881526020013373ffffffffffffffffffffffffffffffffffffffff168152602001428152602001878152509080600181540180825580915050600190039060005260206000209060050201600090919091909150600082015181600001556020820151816001015560408201518160020160006101000a81548173ffffffffffffffffffffffffffffffffffffffff021916908373ffffffffffffffffffffffffffffffffffffffff160217905550606082015181600301556080820151816004019080519060200190610959929190612e8c565b505050809350505050949350505050565b61097b610975611eb5565b826121e8565b6109ba576040517f08c379a00000000000000000000000000000000000000000000000000000000081526004016109b190613b0a565b60405180910390fd5b60005b600a60008573ffffffffffffffffffffffffffffffffffffffff1673ffffffffffffffffffffffffffffffffffffffff16815260200190815260200160002080549050811015610f1c5781600a60008673ffffffffffffffffffffffffffffffffffffffff1673ffffffffffffffffffffffffffffffffffffffff1681526020019081526020016000208281548110610a7f577f4e487b7100000000000000000000000000000000000000000000000000000000600052603260045260246000fd5b9060005260206000209060050201600001541415610f0957600a60008473ffffffffffffffffffffffffffffffffffffffff1673ffffffffffffffffffffffffffffffffffffffff168152602001908152602001600020600a60008673ffffffffffffffffffffffffffffffffffffffff1673ffffffffffffffffffffffffffffffffffffffff1681526020019081526020016000208281548110610b4d577f4e487b7100000000000000000000000000000000000000000000000000000000600052603260045260246000fd5b9060005260206000209060050201908060018154018082558091505060019003906000526020600020906005020160009091909190915060008201548160000155600182015481600101556002820160009054906101000a900473ffffffffffffffffffffffffffffffffffffffff168160020160006101000a81548173ffffffffffffffffffffffffffffffffffffffff021916908373ffffffffffffffffffffffffffffffffffffffff160217905550600382015481600301556004820181600401908054610c1d90613dca565b610c28929190612f12565b505050600a60008573ffffffffffffffffffffffffffffffffffffffff1673ffffffffffffffffffffffffffffffffffffffff1681526020019081526020016000206001600a60008773ffffffffffffffffffffffffffffffffffffffff1673ffffffffffffffffffffffffffffffffffffffff16815260200190815260200160002080549050610cb99190613ce0565b81548110610cf0577f4e487b7100000000000000000000000000000000000000000000000000000000600052603260045260246000fd5b9060005260206000209060050201600a60008673ffffffffffffffffffffffffffffffffffffffff1673ffffffffffffffffffffffffffffffffffffffff1681526020019081526020016000208281548110610d75577f4e487b7100000000000000000000000000000000000000000000000000000000600052603260045260246000fd5b906000526020600020906005020160008201548160000155600182015481600101556002820160009054906101000a900473ffffffffffffffffffffffffffffffffffffffff168160020160006101000a81548173ffffffffffffffffffffffffffffffffffffffff021916908373ffffffffffffffffffffffffffffffffffffffff160217905550600382015481600301556004820181600401908054610e1c90613dca565b610e27929190612f12565b50905050600a60008573ffffffffffffffffffffffffffffffffffffffff1673ffffffffffffffffffffffffffffffffffffffff168152602001908152602001600020805480610ea0577f4e487b7100000000000000000000000000000000000000000000000000000000600052603160045260246000fd5b600190038181906000526020600020906005020160008082016000905560018201600090556002820160006101000a81549073ffffffffffffffffffffffffffffffffffffffff02191690556003820160009055600482016000610f049190612f9f565b505090555b8080610f1490613e2d565b9150506109bd565b50610f2883838361227d565b505050565b610f356124e4565b60005b600a60008473ffffffffffffffffffffffffffffffffffffffff1673ffffffffffffffffffffffffffffffffffffffff168152602001908152602001600020805490508110156110c45781600a60008573ffffffffffffffffffffffffffffffffffffffff1673ffffffffffffffffffffffffffffffffffffffff1681526020019081526020016000208281548110610ffa577f4e487b7100000000000000000000000000000000000000000000000000000000600052603260045260246000fd5b90600052602060002090600502016000015414156110b15742600a60008573ffffffffffffffffffffffffffffffffffffffff1673ffffffffffffffffffffffffffffffffffffffff168152602001908152602001600020828154811061108a577f4e487b7100000000000000000000000000000000000000000000000000000000600052603260045260246000fd5b90600052602060002090600502016001015411156110ac576110ab82612562565b5b6110c4565b80806110bc90613e2d565b915050610f38565b5060005b600a60008473ffffffffffffffffffffffffffffffffffffffff1673ffffffffffffffffffffffffffffffffffffffff168152602001908152602001600020805490508110156114975781600a60008573ffffffffffffffffffffffffffffffffffffffff1673ffffffffffffffffffffffffffffffffffffffff168152602001908152602001600020828154811061118a577f4e487b7100000000000000000000000000000000000000000000000000000000600052603260045260246000fd5b906000526020600020906005020160000154141561148457600a60008473ffffffffffffffffffffffffffffffffffffffff1673ffffffffffffffffffffffffffffffffffffffff1681526020019081526020016000206001600a60008673ffffffffffffffffffffffffffffffffffffffff1673ffffffffffffffffffffffffffffffffffffffff168152602001908152602001600020805490506112309190613ce0565b81548110611267577f4e487b7100000000000000000000000000000000000000000000000000000000600052603260045260246000fd5b9060005260206000209060050201600a60008573ffffffffffffffffffffffffffffffffffffffff1673ffffffffffffffffffffffffffffffffffffffff16815260200190815260200160002082815481106112ec577f4e487b7100000000000000000000000000000000000000000000000000000000600052603260045260246000fd5b906000526020600020906005020160008201548160000155600182015481600101556002820160009054906101000a900473ffffffffffffffffffffffffffffffffffffffff168160020160006101000a81548173ffffffffffffffffffffffffffffffffffffffff021916908373ffffffffffffffffffffffffffffffffffffffff16021790555060038201548160030155600482018160040190805461139390613dca565b61139e929190612f12565b50905050600a60008473ffffffffffffffffffffffffffffffffffffffff1673ffffffffffffffffffffffffffffffffffffffff168152602001908152602001600020805480611417577f4e487b7100000000000000000000000000000000000000000000000000000000600052603160045260246000fd5b600190038181906000526020600020906005020160008082016000905560018201600090556002820160006101000a81549073ffffffffffffffffffffffffffffffffffffffff0219169055600382016000905560048201600061147b9190612f9f565b50509055611497565b808061148f90613e2d565b9150506110c8565b505050565b6114b783838360405180602001604052806000815250611abc565b505050565b6000806004600084815260200190815260200160002060009054906101000a900473ffffffffffffffffffffffffffffffffffffffff169050600073ffffffffffffffffffffffffffffffffffffffff168173ffffffffffffffffffffffffffffffffffffffff161415611565576040517f08c379a000000000000000000000000000000000000000000000000000000000815260040161155c90613a8a565b60405180910390fd5b80915050919050565b60008073ffffffffffffffffffffffffffffffffffffffff168273ffffffffffffffffffffffffffffffffffffffff1614156115df576040517f08c379a00000000000000000000000000000000000000000000000000000000081526004016115d6906139ea565b60405180910390fd5b600560008373ffffffffffffffffffffffffffffffffffffffff1673ffffffffffffffffffffffffffffffffffffffff168152602001908152602001600020549050919050565b61162e6124e4565b61163860006125b5565b565b6060600a60008373ffffffffffffffffffffffffffffffffffffffff1673ffffffffffffffffffffffffffffffffffffffff168152602001908152602001600020805480602002602001604051908101604052809291908181526020016000905b828210156117d357838290600052602060002090600502016040518060a001604052908160008201548152602001600182015481526020016002820160009054906101000a900473ffffffffffffffffffffffffffffffffffffffff1673ffffffffffffffffffffffffffffffffffffffff1673ffffffffffffffffffffffffffffffffffffffff1681526020016003820154815260200160048201805461174290613dca565b80601f016020809104026020016040519081016040528092919081815260200182805461176e90613dca565b80156117bb5780601f10611790576101008083540402835291602001916117bb565b820191906000526020600020905b81548152906001019060200180831161179e57829003601f168201915b5050505050815250508152602001906001019061169b565b505050509050919050565b60008060009054906101000a900473ffffffffffffffffffffffffffffffffffffffff16905090565b60606003805461181690613dca565b80601f016020809104026020016040519081016040528092919081815260200182805461184290613dca565b801561188f5780601f106118645761010080835404028352916020019161188f565b820191906000526020600020905b81548152906001019060200180831161187257829003601f168201915b5050505050905090565b6000336000805b60018054905081101561195d578273ffffffffffffffffffffffffffffffffffffffff16600182815481106118fe577f4e487b7100000000000000000000000000000000000000000000000000000000600052603260045260246000fd5b9060005260206000200160009054906101000a900473ffffffffffffffffffffffffffffffffffffffff1673ffffffffffffffffffffffffffffffffffffffff16141561194a57600191505b808061195590613e2d565b9150506118a0565b508061199e576040517f08c379a000000000000000000000000000000000000000000000000000000000815260040161199590613aea565b60405180910390fd5b60005b600a60008773ffffffffffffffffffffffffffffffffffffffff1673ffffffffffffffffffffffffffffffffffffffff16815260200190815260200160002080549050811015611a985784600a60008873ffffffffffffffffffffffffffffffffffffffff1673ffffffffffffffffffffffffffffffffffffffff1681526020019081526020016000208281548110611a63577f4e487b7100000000000000000000000000000000000000000000000000000000600052603260045260246000fd5b9060005260206000209060050201600001541415611a85576001935050611a9e565b8080611a9090613e2d565b9150506119a1565b50600092505b505092915050565b611ab8611ab1611eb5565b8383612679565b5050565b611acd611ac7611eb5565b836121e8565b611b0c576040517f08c379a0000000000000000000000000000000000000000000000000000000008152600401611b0390613b0a565b60405180910390fd5b611b18848484846127e6565b50505050565b6060611b2982611e6a565b6000600860008481526020019081526020016000208054611b4990613dca565b80601f0160208091040260200160405190810160405280929190818152602001828054611b7590613dca565b8015611bc25780601f10611b9757610100808354040283529160200191611bc2565b820191906000526020600020905b815481529060010190602001808311611ba557829003601f168201915b505050505090506000611bd3612842565b9050600081511415611be9578192505050611c2c565b600082511115611c1e578082604051602001611c06929190613840565b60405160208183030381529060405292505050611c2c565b611c2784612859565b925050505b919050565b611c396124e4565b611c42816128c1565b15611c82576040517f08c379a0000000000000000000000000000000000000000000000000000000008152600401611c7990613aca565b60405180910390fd5b6001819080600181540180825580915050600190039060005260206000200160009091909190916101000a81548173ffffffffffffffffffffffffffffffffffffffff021916908373ffffffffffffffffffffffffffffffffffffffff16021790555050565b6000600760008473ffffffffffffffffffffffffffffffffffffffff1673ffffffffffffffffffffffffffffffffffffffff16815260200190815260200160002060008373ffffffffffffffffffffffffffffffffffffffff1673ffffffffffffffffffffffffffffffffffffffff16815260200190815260200160002060009054906101000a900460ff16905092915050565b611d846124e4565b600073ffffffffffffffffffffffffffffffffffffffff168173ffffffffffffffffffffffffffffffffffffffff161415611df4576040517f08c379a0000000000000000000000000000000000000000000000000000000008152600401611deb9061394a565b60405180910390fd5b611dfd816125b5565b50565b60007f01ffc9a7000000000000000000000000000000000000000000000000000000007bffffffffffffffffffffffffffffffffffffffffffffffffffffffff1916827bffffffffffffffffffffffffffffffffffffffffffffffffffffffff1916149050919050565b611e7381612992565b611eb2576040517f08c379a0000000000000000000000000000000000000000000000000000000008152600401611ea990613a8a565b60405180910390fd5b50565b600033905090565b816006600083815260200190815260200160002060006101000a81548173ffffffffffffffffffffffffffffffffffffffff021916908373ffffffffffffffffffffffffffffffffffffffff160217905550808273ffffffffffffffffffffffffffffffffffffffff16611f30836114bc565b73ffffffffffffffffffffffffffffffffffffffff167f8c5be1e5ebec7d5bd14f71427d1e84f3dd0314c0f7b2291e5b200ac8c7c3b92560405160405180910390a45050565b6001816000016000828254019250508190555050565b600081600001549050919050565b600073ffffffffffffffffffffffffffffffffffffffff168273ffffffffffffffffffffffffffffffffffffffff16141561200a576040517f08c379a000000000000000000000000000000000000000000000000000000000815260040161200190613a4a565b60405180910390fd5b61201381612992565b15612053576040517f08c379a000000000000000000000000000000000000000000000000000000000815260040161204a9061398a565b60405180910390fd5b61205f600083836129fe565b6001600560008473ffffffffffffffffffffffffffffffffffffffff1673ffffffffffffffffffffffffffffffffffffffff16815260200190815260200160002060008282546120af9190613c59565b92505081905550816004600083815260200190815260200160002060006101000a81548173ffffffffffffffffffffffffffffffffffffffff021916908373ffffffffffffffffffffffffffffffffffffffff160217905550808273ffffffffffffffffffffffffffffffffffffffff16600073ffffffffffffffffffffffffffffffffffffffff167fddf252ad1be2c89b69c2b068fc378daa952ba7f163c4a11628f55a4df523b3ef60405160405180910390a461217060008383612a03565b5050565b61217d82612992565b6121bc576040517f08c379a00000000000000000000000000000000000000000000000000000000081526004016121b390613a0a565b60405180910390fd5b806008600084815260200190815260200160002090805190602001906121e3929190612e8c565b505050565b6000806121f4836114bc565b90508073ffffffffffffffffffffffffffffffffffffffff168473ffffffffffffffffffffffffffffffffffffffff16148061223657506122358185611ce8565b5b8061227457508373ffffffffffffffffffffffffffffffffffffffff1661225c846105a4565b73ffffffffffffffffffffffffffffffffffffffff16145b91505092915050565b8273ffffffffffffffffffffffffffffffffffffffff1661229d826114bc565b73ffffffffffffffffffffffffffffffffffffffff16146122f3576040517f08c379a00000000000000000000000000000000000000000000000000000000081526004016122ea9061396a565b60405180910390fd5b600073ffffffffffffffffffffffffffffffffffffffff168273ffffffffffffffffffffffffffffffffffffffff161415612363576040517f08c379a000000000000000000000000000000000000000000000000000000000815260040161235a906139aa565b60405180910390fd5b61236e8383836129fe565b612379600082611ebd565b6001600560008573ffffffffffffffffffffffffffffffffffffffff1673ffffffffffffffffffffffffffffffffffffffff16815260200190815260200160002060008282546123c99190613ce0565b925050819055506001600560008473ffffffffffffffffffffffffffffffffffffffff1673ffffffffffffffffffffffffffffffffffffffff16815260200190815260200160002060008282546124209190613c59565b92505081905550816004600083815260200190815260200160002060006101000a81548173ffffffffffffffffffffffffffffffffffffffff021916908373ffffffffffffffffffffffffffffffffffffffff160217905550808273ffffffffffffffffffffffffffffffffffffffff168473ffffffffffffffffffffffffffffffffffffffff167fddf252ad1be2c89b69c2b068fc378daa952ba7f163c4a11628f55a4df523b3ef60405160405180910390a46124df838383612a03565b505050565b6124ec611eb5565b73ffffffffffffffffffffffffffffffffffffffff1661250a6117de565b73ffffffffffffffffffffffffffffffffffffffff1614612560576040517f08c379a000000000000000000000000000000000000000000000000000000000815260040161255790613a6a565b60405180910390fd5b565b61256b81612a08565b600060086000838152602001908152602001600020805461258b90613dca565b9050146125b2576008600082815260200190815260200160002060006125b19190612f9f565b5b50565b60008060009054906101000a900473ffffffffffffffffffffffffffffffffffffffff169050816000806101000a81548173ffffffffffffffffffffffffffffffffffffffff021916908373ffffffffffffffffffffffffffffffffffffffff1602179055508173ffffffffffffffffffffffffffffffffffffffff168173ffffffffffffffffffffffffffffffffffffffff167f8be0079c531659141344cd1fd0a4f28419497f9722a3daafe3b4186f6b6457e060405160405180910390a35050565b8173ffffffffffffffffffffffffffffffffffffffff168373ffffffffffffffffffffffffffffffffffffffff1614156126e8576040517f08c379a00000000000000000000000000000000000000000000000000000000081526004016126df906139ca565b60405180910390fd5b80600760008573ffffffffffffffffffffffffffffffffffffffff1673ffffffffffffffffffffffffffffffffffffffff16815260200190815260200160002060008473ffffffffffffffffffffffffffffffffffffffff1673ffffffffffffffffffffffffffffffffffffffff16815260200190815260200160002060006101000a81548160ff0219169083151502179055508173ffffffffffffffffffffffffffffffffffffffff168373ffffffffffffffffffffffffffffffffffffffff167f17307eab39ab6107e8899845ad3d59bd9653f200f220920489ca2b5937696c31836040516127d991906138ed565b60405180910390a3505050565b6127f184848461227d565b6127fd84848484612b25565b61283c576040517f08c379a00000000000000000000000000000000000000000000000000000000081526004016128339061392a565b60405180910390fd5b50505050565b606060405180602001604052806000815250905090565b606061286482611e6a565b600061286e612842565b9050600081511161288e57604051806020016040528060008152506128b9565b8061289884612cbc565b6040516020016128a9929190613840565b6040516020818303038152906040525b915050919050565b6000806000905060005b600180549050811015612988578373ffffffffffffffffffffffffffffffffffffffff1660018281548110612929577f4e487b7100000000000000000000000000000000000000000000000000000000600052603260045260246000fd5b9060005260206000200160009054906101000a900473ffffffffffffffffffffffffffffffffffffffff1673ffffffffffffffffffffffffffffffffffffffff16141561297557600191505b808061298090613e2d565b9150506128cb565b5080915050919050565b60008073ffffffffffffffffffffffffffffffffffffffff166004600084815260200190815260200160002060009054906101000a900473ffffffffffffffffffffffffffffffffffffffff1673ffffffffffffffffffffffffffffffffffffffff1614159050919050565b505050565b505050565b6000612a13826114bc565b9050612a21816000846129fe565b612a2c600083611ebd565b6001600560008373ffffffffffffffffffffffffffffffffffffffff1673ffffffffffffffffffffffffffffffffffffffff1681526020019081526020016000206000828254612a7c9190613ce0565b925050819055506004600083815260200190815260200160002060006101000a81549073ffffffffffffffffffffffffffffffffffffffff021916905581600073ffffffffffffffffffffffffffffffffffffffff168273ffffffffffffffffffffffffffffffffffffffff167fddf252ad1be2c89b69c2b068fc378daa952ba7f163c4a11628f55a4df523b3ef60405160405180910390a4612b2181600084612a03565b5050565b6000612b468473ffffffffffffffffffffffffffffffffffffffff16612e69565b15612caf578373ffffffffffffffffffffffffffffffffffffffff1663150b7a02612b6f611eb5565b8786866040518563ffffffff1660e01b8152600401612b91949392919061387f565b602060405180830381600087803b158015612bab57600080fd5b505af1925050508015612bdc57506040513d601f19601f82011682018060405250810190612bd99190613398565b60015b612c5f573d8060008114612c0c576040519150601f19603f3d011682016040523d82523d6000602084013e612c11565b606091505b50600081511415612c57576040517f08c379a0000000000000000000000000000000000000000000000000000000008152600401612c4e9061392a565b60405180910390fd5b805181602001fd5b63150b7a0260e01b7bffffffffffffffffffffffffffffffffffffffffffffffffffffffff1916817bffffffffffffffffffffffffffffffffffffffffffffffffffffffff191614915050612cb4565b600190505b949350505050565b60606000821415612d04576040518060400160405280600181526020017f30000000000000000000000000000000000000000000000000000000000000008152509050612e64565b600082905060005b60008214612d36578080612d1f90613e2d565b915050600a82612d2f9190613caf565b9150612d0c565b60008167ffffffffffffffff811115612d78577f4e487b7100000000000000000000000000000000000000000000000000000000600052604160045260246000fd5b6040519080825280601f01601f191660200182016040528015612daa5781602001600182028036833780820191505090505b5090505b60008514612e5d57600182612dc39190613ce0565b9150600a85612dd29190613e76565b6030612dde9190613c59565b60f81b818381518110612e1a577f4e487b7100000000000000000000000000000000000000000000000000000000600052603260045260246000fd5b60200101907effffffffffffffffffffffffffffffffffffffffffffffffffffffffffffff1916908160001a905350600a85612e569190613caf565b9450612dae565b8093505050505b919050565b6000808273ffffffffffffffffffffffffffffffffffffffff163b119050919050565b828054612e9890613dca565b90600052602060002090601f016020900481019282612eba5760008555612f01565b82601f10612ed357805160ff1916838001178555612f01565b82800160010185558215612f01579182015b82811115612f00578251825591602001919060010190612ee5565b5b509050612f0e9190612fdf565b5090565b828054612f1e90613dca565b90600052602060002090601f016020900481019282612f405760008555612f8e565b82601f10612f515780548555612f8e565b82800160010185558215612f8e57600052602060002091601f016020900482015b82811115612f8d578254825591600101919060010190612f72565b5b509050612f9b9190612fdf565b5090565b508054612fab90613dca565b6000825580601f10612fbd5750612fdc565b601f016020900490600052602060002090810190612fdb9190612fdf565b5b50565b5b80821115612ff8576000816000905550600101612fe0565b5090565b600061300f61300a84613b6a565b613b45565b90508281526020810184848401111561302757600080fd5b613032848285613d88565b509392505050565b600061304d61304884613b9b565b613b45565b90508281526020810184848401111561306557600080fd5b613070848285613d88565b509392505050565b6000813590506130878161435a565b92915050565b60008135905061309c81614371565b92915050565b6000813590506130b181614388565b92915050565b6000815190506130c681614388565b92915050565b600082601f8301126130dd57600080fd5b81356130ed848260208601612ffc565b91505092915050565b600082601f83011261310757600080fd5b813561311784826020860161303a565b91505092915050565b60008135905061312f8161439f565b92915050565b60006020828403121561314757600080fd5b600061315584828501613078565b91505092915050565b6000806040838503121561317157600080fd5b600061317f85828601613078565b925050602061319085828601613078565b9150509250929050565b6000806000606084860312156131af57600080fd5b60006131bd86828701613078565b93505060206131ce86828701613078565b92505060406131df86828701613120565b9150509250925092565b600080600080608085870312156131ff57600080fd5b600061320d87828801613078565b945050602061321e87828801613078565b935050604061322f87828801613120565b925050606085013567ffffffffffffffff81111561324c57600080fd5b613258878288016130cc565b91505092959194509250565b6000806040838503121561327757600080fd5b600061328585828601613078565b92505060206132968582860161308d565b9150509250929050565b600080600080608085870312156132b657600080fd5b60006132c487828801613078565b945050602085013567ffffffffffffffff8111156132e157600080fd5b6132ed878288016130f6565b93505060406132fe87828801613120565b925050606085013567ffffffffffffffff81111561331b57600080fd5b613327878288016130f6565b91505092959194509250565b6000806040838503121561334657600080fd5b600061335485828601613078565b925050602061336585828601613120565b9150509250929050565b60006020828403121561338157600080fd5b600061338f848285016130a2565b91505092915050565b6000602082840312156133aa57600080fd5b60006133b8848285016130b7565b91505092915050565b6000602082840312156133d357600080fd5b60006133e184828501613120565b91505092915050565b60006133f683836137ac565b905092915050565b61340781613d14565b82525050565b61341681613d14565b82525050565b600061342782613bdc565b6134318185613c0a565b93508360208202850161344385613bcc565b8060005b8581101561347f578484038952815161346085826133ea565b945061346b83613bfd565b925060208a01995050600181019050613447565b50829750879550505050505092915050565b61349a81613d26565b82525050565b60006134ab82613be7565b6134b58185613c1b565b93506134c5818560208601613d97565b6134ce81613f63565b840191505092915050565b60006134e482613bf2565b6134ee8185613c2c565b93506134fe818560208601613d97565b61350781613f63565b840191505092915050565b600061351d82613bf2565b6135278185613c3d565b9350613537818560208601613d97565b61354081613f63565b840191505092915050565b600061355682613bf2565b6135608185613c4e565b9350613570818560208601613d97565b80840191505092915050565b6000613589603283613c3d565b915061359482613f74565b604082019050919050565b60006135ac602683613c3d565b91506135b782613fc3565b604082019050919050565b60006135cf602583613c3d565b91506135da82614012565b604082019050919050565b60006135f2601c83613c3d565b91506135fd82614061565b602082019050919050565b6000613615602483613c3d565b91506136208261408a565b604082019050919050565b6000613638601983613c3d565b9150613643826140d9565b602082019050919050565b600061365b602983613c3d565b915061366682614102565b604082019050919050565b600061367e602e83613c3d565b915061368982614151565b604082019050919050565b60006136a1603e83613c3d565b91506136ac826141a0565b604082019050919050565b60006136c4602083613c3d565b91506136cf826141ef565b602082019050919050565b60006136e7602083613c3d565b91506136f282614218565b602082019050919050565b600061370a601883613c3d565b915061371582614241565b602082019050919050565b600061372d602183613c3d565b91506137388261426a565b604082019050919050565b6000613750602083613c3d565b915061375b826142b9565b602082019050919050565b6000613773601f83613c3d565b915061377e826142e2565b602082019050919050565b6000613796602e83613c3d565b91506137a18261430b565b604082019050919050565b600060a0830160008301516137c46000860182613822565b5060208301516137d76020860182613822565b5060408301516137ea60408601826133fe565b5060608301516137fd6060860182613822565b506080830151848203608086015261381582826134d9565b9150508091505092915050565b61382b81613d7e565b82525050565b61383a81613d7e565b82525050565b600061384c828561354b565b9150613858828461354b565b91508190509392505050565b6000602082019050613879600083018461340d565b92915050565b6000608082019050613894600083018761340d565b6138a1602083018661340d565b6138ae6040830185613831565b81810360608301526138c081846134a0565b905095945050505050565b600060208201905081810360008301526138e5818461341c565b905092915050565b60006020820190506139026000830184613491565b92915050565b600060208201905081810360008301526139228184613512565b905092915050565b600060208201905081810360008301526139438161357c565b9050919050565b600060208201905081810360008301526139638161359f565b9050919050565b60006020820190508181036000830152613983816135c2565b9050919050565b600060208201905081810360008301526139a3816135e5565b9050919050565b600060208201905081810360008301526139c381613608565b9050919050565b600060208201905081810360008301526139e38161362b565b9050919050565b60006020820190508181036000830152613a038161364e565b9050919050565b60006020820190508181036000830152613a2381613671565b9050919050565b60006020820190508181036000830152613a4381613694565b9050919050565b60006020820190508181036000830152613a63816136b7565b9050919050565b60006020820190508181036000830152613a83816136da565b9050919050565b60006020820190508181036000830152613aa3816136fd565b9050919050565b60006020820190508181036000830152613ac381613720565b9050919050565b60006020820190508181036000830152613ae381613743565b9050919050565b60006020820190508181036000830152613b0381613766565b9050919050565b60006020820190508181036000830152613b2381613789565b9050919050565b6000602082019050613b3f6000830184613831565b92915050565b6000613b4f613b60565b9050613b5b8282613dfc565b919050565b6000604051905090565b600067ffffffffffffffff821115613b8557613b84613f34565b5b613b8e82613f63565b9050602081019050919050565b600067ffffffffffffffff821115613bb657613bb5613f34565b5b613bbf82613f63565b9050602081019050919050565b6000819050602082019050919050565b600081519050919050565b600081519050919050565b600081519050919050565b6000602082019050919050565b600082825260208201905092915050565b600082825260208201905092915050565b600082825260208201905092915050565b600082825260208201905092915050565b600081905092915050565b6000613c6482613d7e565b9150613c6f83613d7e565b9250827fffffffffffffffffffffffffffffffffffffffffffffffffffffffffffffffff03821115613ca457613ca3613ea7565b5b828201905092915050565b6000613cba82613d7e565b9150613cc583613d7e565b925082613cd557613cd4613ed6565b5b828204905092915050565b6000613ceb82613d7e565b9150613cf683613d7e565b925082821015613d0957613d08613ea7565b5b828203905092915050565b6000613d1f82613d5e565b9050919050565b60008115159050919050565b60007fffffffff0000000000000000000000000000000000000000000000000000000082169050919050565b600073ffffffffffffffffffffffffffffffffffffffff82169050919050565b6000819050919050565b82818337600083830152505050565b60005b83811015613db5578082015181840152602081019050613d9a565b83811115613dc4576000848401525b50505050565b60006002820490506001821680613de257607f821691505b60208210811415613df657613df5613f05565b5b50919050565b613e0582613f63565b810181811067ffffffffffffffff82111715613e2457613e23613f34565b5b80604052505050565b6000613e3882613d7e565b91507fffffffffffffffffffffffffffffffffffffffffffffffffffffffffffffffff821415613e6b57613e6a613ea7565b5b600182019050919050565b6000613e8182613d7e565b9150613e8c83613d7e565b925082613e9c57613e9b613ed6565b5b828206905092915050565b7f4e487b7100000000000000000000000000000000000000000000000000000000600052601160045260246000fd5b7f4e487b7100000000000000000000000000000000000000000000000000000000600052601260045260246000fd5b7f4e487b7100000000000000000000000000000000000000000000000000000000600052602260045260246000fd5b7f4e487b7100000000000000000000000000000000000000000000000000000000600052604160045260246000fd5b6000601f19601f8301169050919050565b7f4552433732313a207472616e7366657220746f206e6f6e20455243373231526560008201527f63656976657220696d706c656d656e7465720000000000000000000000000000602082015250565b7f4f776e61626c653a206e6577206f776e657220697320746865207a65726f206160008201527f6464726573730000000000000000000000000000000000000000000000000000602082015250565b7f4552433732313a207472616e736665722066726f6d20696e636f72726563742060008201527f6f776e6572000000000000000000000000000000000000000000000000000000602082015250565b7f4552433732313a20746f6b656e20616c7265616479206d696e74656400000000600082015250565b7f4552433732313a207472616e7366657220746f20746865207a65726f2061646460008201527f7265737300000000000000000000000000000000000000000000000000000000602082015250565b7f4552433732313a20617070726f766520746f2063616c6c657200000000000000600082015250565b7f4552433732313a2061646472657373207a65726f206973206e6f74206120766160008201527f6c6964206f776e65720000000000000000000000000000000000000000000000602082015250565b7f45524337323155524953746f726167653a2055524920736574206f66206e6f6e60008201527f6578697374656e7420746f6b656e000000000000000000000000000000000000602082015250565b7f4552433732313a20617070726f76652063616c6c6572206973206e6f7420746f60008201527f6b656e206f776e6572206e6f7220617070726f76656420666f7220616c6c0000602082015250565b7f4552433732313a206d696e7420746f20746865207a65726f2061646472657373600082015250565b7f4f776e61626c653a2063616c6c6572206973206e6f7420746865206f776e6572600082015250565b7f4552433732313a20696e76616c696420746f6b656e2049440000000000000000600082015250565b7f4552433732313a20617070726f76616c20746f2063757272656e74206f776e6560008201527f7200000000000000000000000000000000000000000000000000000000000000602082015250565b7f53656c6c657220697320616c726561647920696e2053656c6c6572204c697374600082015250565b7f53656c6c6572206973206e6f7420417574686f72697a65642053656c6c657200600082015250565b7f4552433732313a2063616c6c6572206973206e6f7420746f6b656e206f776e6560008201527f72206e6f7220617070726f766564000000000000000000000000000000000000602082015250565b61436381613d14565b811461436e57600080fd5b50565b61437a81613d26565b811461438557600080fd5b50565b61439181613d32565b811461439c57600080fd5b50565b6143a881613d7e565b81146143b357600080fd5b5056fea2646970667358221220eee7425e9718bb70dd34ffcd9e5c2f3c0aa2b60b97f8b565c789dc3cb9952e4c64736f6c63430008010033",
  "linkReferences": {},
  "deployedLinkReferences": {}
}